:040000006F00103A43
:10000400000000000000000090000020BE06002058
:10001400A9BDF9F5900000200000000000000000D8
:10002400900000209000002000000000000000006C
:10003400900000200000000090000020000000005C
:1000440090000020900000209000002090000020EC
:10005400900000209000002090000020000000008C
:1000640090000020900000209000002090000020CC
:1000740090000020900000209200002090000020BA
:1000840090000020900000209000002090000020AC
:1000940001A0411122C626C44AC2973000E0E7807D
:1000A40000DB9317F5002A849374054063D0072678
:1000B4009377150099C703C5D180973000E0E78096
:1000C40080C09317D40063DE070EB707040093873C
:1000D4006708E18F95CB83C7A18003C7B18063F71D
:1000E400E7089387A18083C7070093F7F70F138767
:1000F40017002385E18013870182BA9703C507009F
:10010400973000E0E78020BC9DC037050010130540
:100114000540973000E0E780E0D48D472384F180E8
:100124000545A3880180973000E0E780A0B393776A
:10013400041099CF13050010973000E0E78080D2B7
:100144000545973000E0E780E0B195472384F180CE
:10015400937704206381072213050020973000E081
:10016400E78040D091472384F18031A483C7C180C4
:1001740089CB0545A3880180973000E0E78080AEF5
:1001840061B78547814513050040A384F18097300A
:1001940000E0E78060B1814513050020973000E05E
:1001A400E78080B0814513050010973000E0E780B8
:1001B400A0AF0545973000E0E780A0A8A3880180A0
:1001C400A1B79377240089CB83C7B180E1C30545E8
:1001D400973000E0E78020AB937704049DCB03C9FC
:1001E400A180930719002385F180973000E0E78010
:1001F40020AE93870182CA972380A70003C7B180EA
:1002040083C7A18063FDE7080545973000E0E780D8
:1002140080A7E38E04F037050010130505409730DE
:1002240000E0E78020C483C4A18093871400238561
:10023400F180973000E0E780A0A993870182A69718
:100244002380A70083C7C180E39C07EC85478145D1
:1002540013050040A384F180973000E0E780C0A438
:10026400814513050020973000E0E780E0A3814535
:1002740013050010973000E0E78000A30545973090
:1002840000E0E780009CA388018055B501459730C4
:1002940000E0E780409F85472389F18035BF014511
:1002A400973000E0E780209E83C72181A1CF238976
:1002B400018083C7C18089CB0545973000E0E78082
:1002C400609AA3880180B1B7854781451305004032
:1002D400A384F180973000E0E780009D81451305F9
:1002E4000020973000E0E780209C81451305001032
:1002F400973000E0E780409B0545973000E0E780B9
:100304004094C1B785472389F18021B793772500AD
:100314008DCBB707040093870708E98FE1C791479E
:10032400A388F180A387018023880180938741817A
:100334009C4381CB9C4391C7938501811385019292
:1003440082979317D40063D5070E0545973000E0D4
:10035400E7806093D1CC3705001013050540973032
:1003640000E0E78020B00545973000E0E780A091E9
:100374000144A3880180056513050580B377A400B3
:1003840081CB973000E0E780E0AD99472384F1808A
:100394009317340163DA07000565973000E0E780BE
:1003A40060AC9D472384F1809317140163DA07003E
:1003B4001165973000E0E780E0AAA1472384F1802B
:1003C4009317040163DA07002165973000E0E780A2
:1003D40060A9A5472384F1803244A2441249410113
:1003E400730020308D47A388F1802387018091BF5B
:1003F40093774408E38D07D283C7F18003C7018153
:100404001305F00F63F1E7029387F18083C70700B8
:1004140093F7F70F13871700A387E18013870192DF
:10042400BA9703C50700973000E0E780C08901B39D
:1004340093770404A1C383C7E180E207E187014500
:1004440063C607029387E18003C907001379F90F94
:10045400930719002387F180973000E0E7804087F5
:100464009387018A3E992300A9000545973000E04F
:10047400E78060819377040195C73757004083571D
:10048400078093E717002310F780938741819C43EB
:1004940081CBDC4391C783C5E1801385018A8297B0
:1004A40023870180E38504C8370500101305054040
:1004B400973000E0E780009B0545972000E0E78047
:1004C400807CB5B1011113078008F337078093F7D7
:1004D40087083EC201000100B7170040930570056C
:1004E4002380B704130680FA2380C70401000100A7
:1004F40083C6B70493F6F60DA385D70423800704B7
:100504009246F3A606800100010093760502D5CE3B
:10051400F336078093F6860836C401000100238071
:10052400B7042380C70401000100B70614007D89C5
:10053400558D88C7010001000100010023800704D4
:10054400A246F3A6068001000100733707801377E3
:1005540087083AC6010001002380B7042380C7043A
:100564000100010001000100372700409306100537
:10057400A303D78023800704B247F3A707800100B1
:10058400010093078008F3B7078093F787083ECEEE
:1005940001000100B7170040130770052380E7042A
:1005A400130780FA2380E7040100010003C7B7049E
:1005B40013670708A385E70423800704F247F3A71A
:1005C4000780010001000561828093760504BDC6A1
:1005D400F336078093F6860836C8010001002380AD
:1005E400B7042380C70401000100B70614009386F2
:1005F40006047D89558D88C70100010001000100B2
:1006040023800704C246F3A6068001000100733765
:100614000780137787083ACA010001002380B704D2
:100624002380C704010001003727004093062005FA
:10063400A303D78023800704D24781B77337078089
:10064400137787083ACC010001002380B704238084
:10065400C7040100010098471367070C98C723805B
:100664000704E24719BF011181460146814511453E
:1006740006CE7D2A93078008F3B7078093F787088F
:100684003EC601000100B717004013077005238020
:10069400E704130780FA2380E7040100010003C77D
:1006A4006704136717002383E70423800704B24712
:1006B400F3A7078001000100F24005618280411127
:1006C4008146014681451145A52213078008F33769
:1006D400078093F787083EC401000100B717004064
:1006E400130670052380C704930680FA2380D70479
:1006F40001000100FD552396B70223800704A2459B
:10070400F3A505800100010073370780137787087C
:100714003AC6010001002380C7042380D7040100E6
:10072400010003C76704136717002383E7042380CA
:100734000704B247F3A707800100010001A0BD47E9
:100744003305F50201007D1575FD8280411122C437
:1007540026C206C6AA84014463179400B240224408
:1007640092444101828005041305803E4204C13F46
:100774004180DDB72303048015472303E48001008F
:100784002302A480828083076480E3CE07FE2303D0
:100794000480828083076480E3CE07FE034544809F
:1007A400828083076480E3CE07FE2302A4808280D4
:1007B400411126C44AC24EC006C61377F50BAD4795
:1007C400AA892E8995446306F70019456537653F64
:1007D4008D444E854537FD59FD1463983401B2406C
:1007E400A2441249824941018280135509011375BB
:1007F400F50F453F2209CDB7011126CC06CEB7042B
:10080400080051371545BD37713769372AC6A53FEA
:1008140032459377150089EB136515001375F50FB1
:10082400F240E24405618280FD14E9FC0145CDBF3C
:10083400397126DC4ADA4ED852D656D45AD25ED012
:1008440006DE62CE66CCB7E700E07D5783AA0700D8
:1008540022C603AA470023A0E71823A2E718B71764
:100864000040130770052380E704130780FA2380F0
:10087400E70483C74704930B75FFB684E20793FB31
:10088400FB0F8546AA892E8B328937240040E187E5
:10089400015763FA76016308D500894613070002FD
:1008A4006313D5000157D98F93F7F70FB71C004096
:1008B4002382FC0411472303E4801305F00F5D3DFC
:1008C400094CD135636D7C11B7050700DA9537877C
:1008D4000700795563F2E504B3879500636EF70268
:1008E400370B0800A94733EB65016399F90689E4DE
:1008F4008144513D26850DA0DA850945553D0509FC
:100904000345F9FFFD14050B693D81C49377FB0F83
:10091400FDF7DD3569FD7D55B717004013077005F8
:100924002380E704130780FA2380E70403C74704FE
:10093400418B2382E704F250B7E700E023A057116C
:1009440023A24711E25432445259C259325AA25A8C
:10095400125B825B724CE24C21618280A5476395F5
:10096400F90685691309F00FB3069900B3742B01D6
:10097400B6941349F9FFB3749900856B337969010F
:10098400416B9387F9FFB3F7270199E363FC3401C3
:1009940093D94900C147E3E637FF99BF0569C169A7
:1009A4007D19D9B71305800D638869011305000209
:1009B4006384790113051008CA85DD3B353D21DDCB
:1009C4004E99B3843441D9B7DA852D45D533CA94C9
:1009D400E30099F205097D3BA30FA9FED5BF9387D8
:1009E400F9FF93F7F70F6361FC0C83C71C0413072B
:1009F4003008631FF70437070800636BEB04B30781
:100A04009B00B706100063F5D704334BEB0089470E
:100A14006393F9068980D549E38C04ECDA850945AA
:100A2400413B11090327C9FF91472320E4800307B1
:100A34006480E34E07FE23033481FD17EDFBFD14B0
:100A4400110B81C49377FB0FE9FF7D3371F5E1B599
:100A5400B717004003C75704B70708001377070206
:100A640019E3B78707007955E378FBEA33079B005E
:100A7400E3FFE7F855B58547E382F9F2DA852D45BA
:100A8400053B9389F4FFE38504E6293393F73900A2
:100A940091EB832604800327090093074900E39A16
:100AA400E6E43E89CE84F1BFB5476396F9001305A9
:100AB400900BC93135BDB1471305B00AE38BF9FE7C
:100AC40099476391F904B7050800B365BB002D4548
:100AD400C53181448D4BA1497539639674018327CF
:100AE40004802320F9008504E39834FF83270480DD
:100AF40013172B01635507002312F900D5BB2322DA
:100B0400F900FDB39D476399F90281451305B004CB
:100B14004531BD442320090023220900FD599D3994
:100B240093F77400CA9703C70700FD14398D238017
:100B3400A700E39634FF6DBBA1476392F9046D39B6
:100B44008144630D0B008D479304C0036308FB00CD
:100B54009304000563048B01930440041375C507D3
:100B6400E30895D8194539313939054521312685A8
:100B74000D3909453D314931E31C05D669BB91471F
:100B84006399F90013056006F536F53E13059009DF
:0C0B94000DB7E38F09D4F154A9BB000099
:100BA000973100209381018617610020130181C5D0
:100BB0001305400097F5FF1F9385C54417060020D5
:100BC000130606FE63FAC5008322050023A0550024
:100BD00011059105E3EAC5FE1765000013058507B9
:100BE000970500209385C5FB1386818063FAC500B5
:100BF0008322050023A0550011059105E3EAC5FEF7
:100C0000138581809385C1216377B500232005007A
:100C10001105E36DB5FEFD42739002BC8D427390E9
:100C20004280930280087390023097F2FF1F9382F4
:100C3000623D93E23200739052309702000093823B
:100C4000820B73901234730020303D432A87637304
:100C5000C3029377F700BDEFADE5937606FF3D8ABB
:100C6000BA960CC34CC30CC74CC74107E36BD7FE05
:100C700011E28280B306C3408A069702000096966E
:100C80006780A6002307B700A306B7002306B700B6
:100C9000A305B7002305B700A304B7002304B700DA
:100CA000A303B7002303B700A302B7002302B700D2
:100CB000A301B7002301B700A300B7002300B700CA
:100CC000828093F5F50F93968500D58D9396050157
:100CD000D58D61B79396270097020000969686827D
:100CE000E78086FA9680C1171D8F3E96E374C3F89D
:100CF000A5B741111305800406C697F0FF1FE780D2
:100D0000A07C371700408327870A8545130500100C
:100D100093E707202324F70AEF10B05D8D451305F4
:100D20000020EF10105DEF2040219305C003014526
:100D3000EF1020207DD9EF10601EB2400545410123
:100D400082800111A388018005472386E1802AC69D
:100D50008545316506CEA3840180EF10F063B2476C
:100D6000B72506001167930600401166938505A814
:100D70000145EF103078854513050040EF10907263
:100D8000854513050020EF10F0718545130500100F
:100D9000EF105071F240B7E700E03707004023A0A2
:100DA000E710056182809307000863ECC70C01110E
:100DB0004AC806CE22CC26CA4EC683C811811389E2
:100DC0001181F9576394080011EA8147F2406244A7
:100DD000D2444249B2493E85056182808947B68442
:100DE000A388F1802386E180238401802A841385EF
:100DF0000182A385C18023850180EF204029A3863D
:100E0000018083C7D180131514005D8DA386A18056
:100E10000145EF10F06403C7918085479389D18025
:100E2000631DF704A38401803754004003C5090003
:100E3000EF10306983574481918BEDFB8545130595
:100E40000040EF103066854513050020EF109065D7
:100E5000854513050010EF10F064094789C48347E6
:100E60000900E30DF7FE83C78180A5D393878180B6
:100E700083C70700B307F04091BF0545EF10305C12
:100E8000E9BFFD573E858280011122CC06CE834703
:100E9000A503A307B1002A8495E31C4585460345B5
:100EA000950309CA1306F1009305000482973335B0
:100EB000A00009A81306F1008145CDBF054763874F
:100EC000E7000545F2406244056182801C5132858D
:100ED000829765F95C4885451305F1008297C1BF8B
:100EE0008E05137776002E950D8285473295B39740
:100EF000E7000347B50391C6D98FA30DF50201455D
:100F0000828093C7F7FFF98FCDBF011122CC26CA8B
:100F100006CE0347A5032A84AE84B68705E393165D
:100F2000060118452E8603459503C18293050004EA
:100F300091E3814502973335A00029A085466308D7
:100F4000D7000545F2406244D244056182801851C1
:100F50003E8532C6029775F532465C482685B285D5
:100F60008297D1BF011126CA06CE22CC4AC84EC6EE
:100F700052C456C289441DC5834485038547639B7B
:100F8000F4062A840149A14A930509FB014693F519
:100F9000F50F2285D53D0DC11C58175500001305CE
:100FA00025B98297F240624426854249D244B2492B
:100FB000224A924A05618280014681452285E935AF
:100FC00061FD0146C1452285C13579F5330A240109
:100FD00093090008A30D0A020546814522856D3557
:100FE00045FDFD19210AE39709FE0509E31E59F99C
:100FF00081444DBF8D447DB7011126CA06CE22CC57
:101000004AC84EC652C456C289441DC5834485038E
:101010008547639AF4062A840149A14A930509FB8E
:10102000014693F5F50F228585350DC11C581755DE
:1010300000001305E5AF8297F240624426854249DD
:10104000D244B249224A924A0561828001468145D2
:1010500022851D3D61FD0146C1452285353579F565
:10106000330A2401930900088345BA030546228503
:10107000213D4DFDFD19210AE39809FE0509E31FF5
:1010800059F9814455BF8D4445BF25C503478503A4
:10109000AA8705456311A7061395850161856346F7
:1010A00005001305F003637FC5009C5B411106C674
:1010B000175500001305C50E8297B240914636853C
:1010C000410182808E0513757600AE970D82B2972E
:1010D0003317A70003C6B70399C6518FA38DE70244
:1010E0008146368582801347F7FF718FA38DE70213
:1010F000CDBF8946FDB78D46EDB75971CECE86D6A8
:10110000A2D4A6D2CAD0D2CCD6CADAC8DEC6E2C42D
:10111000E6C2EAC06EDE894959C983498503B68BA8
:1011200085462A8C639BD91A93968501E1862E8980
:1011300063C7060632841306F0036362860693557E
:1011400018009306F0078D8E137AF80F36C2937647
:101150007A0013553A00B336D000AA9613551A00F8
:10116000B386A6023306064132CA174600001306AC
:1011700066C693F5F50F2EC493F6F60FB29636CCED
:1011800093B6170036CE11CB03CF0B009306E005C4
:10119000011F137FFF0F63FCE603814909A8832722
:1011A0000C03175500001305A5FF91498297B6500F
:1011B00026544E8596540659F649664AD64A464BF9
:1011C000B64B264C964C064DF25D65618280924688
:1011D00063F6260152941374F40F0149D24663F466
:1011E000860001440149930A4002B30A5F0397460F
:1011F0000000938626BEB14EA2844A8DB38CDA00DD
:10120000B306DF03973E0000938E8E16120FB38D48
:10121000DE00973600009386E65C338BE601E246FB
:10122000D69636C69376F80F36C8B246639BDC0076
:10123000A2467D17420736991379F90F850B418332
:1012400099B7B1466310DA0683C80D009382840013
:1012500093FAF20F93968801E18642D663D0060690
:10126000BE862686EA8562853AD446D23ED08D393E
:1012700082579258225732581DF98504424693F4FA
:10128000F40F8608B386844093F8F80F6394C6047D
:1012900013031D00137DF30FA28A850C850D050B2A
:1012A000D68461B7C1466315DA0083480B0079BF65
:1012B000E146E31EDAEE83C80C0049BFF2462686FB
:1012C000EA8562853ED43AD246D0193982581257FF
:1012D000A25755B7E3909AF8C9B78D49C9BD79713E
:1012E00022D406D626D24AD04ECE52CC56CA094473
:1012F0001DC903448503B68A85462A896314D40A26
:1013000093968501E186AE8463C706009306F003D9
:10131000328A63F4C60283270903175500001305B8
:10132000258E114482972285B2502254925402593C
:10133000F249624AD24A4561828013968A016186E7
:101340006344060063FBE60083270903175500008A
:101350001305458D15448297F9B763E4BA006375A8
:10136000470583270903175500001305258E1944E7
:10137000829755BFB689BE864E86A6854A853AC6EF
:101380003EC4B93E4DF132479386190093F6F60FED
:10139000A247E31137FF850493F4F40F63F69A0034
:1013A000014451B70D4441B7D289F1B7797122D4C4
:1013B00006D626D24AD04ECE52CC56CA09441DC9B2
:1013C00003448503B68A85462A896316D40A939610
:1013D0008501E186AE8463C706009306F003328A76
:1013E00063F4C602832709031755000013054581DE
:1013F000114482972285B250225492540259F249E4
:10140000624AD24A4561828013968A0161866344AA
:10141000060063FBE6008327090317550000130548
:10142000658015448297F9B763E4BA00637747058E
:101430008327090317550000130545811944829736
:1014400055BFB68983C607004E86A6854A853AC62B
:101450003EC4793445F1A247324793861900850787
:1014600093F6F60FE31F37FD850493F4F40F63F64C
:101470009A00014441B70D44B5BFD289E1B741118B
:1014800026C206C622C4894401CD1C598D4489CB8D
:1014900018412A8401EF175500001305E581829752
:1014A000B24022442685924441018280584117551A
:1014B00000001305258219C7184401EB17550000D9
:1014C0001305458382978D44E1BF584417550000AA
:1014D0001305458465DB184817550000130545853D
:1014E00075D35848175500001305858661DF585895
:1014F000175500001305058871D7184C17550000C3
:101500001305058961D3544C175500001305058B4D
:10151000D5DA1450175500001305058DC5D6545063
:10152000175500001305058FD1DE14541755000020
:1015300013058590C1DA54541755000013054592E0
:10154000D1D2029709C91C5817550000130585937D
:1015500095448297B1B75C50829719C91C581755AA
:1015600000001305E59482975C4C829791440DBF6F
:101570005C54829719C91C581755000013058595AE
:1015800082975C4C82971C54CDB75C58130540067B
:1015900082975C5405458297AA8471FD8347A40312
:1015A00085E31C40829729C51C5817550000130578
:1015B000A59482975C4C854482971C548297CDB544
:1015C0000547639BE7005C4482971DC11C58175573
:1015D000000013052594F1BF1C5817550000130592
:1015E0002595994482975C4C82971C5482974DBDF7
:1015F0008547230CF4026DB5011126CA06CE22CC14
:101600004AC889440DC90349850385472A848D4406
:101610006313F90285679387D708814609466C00F2
:101620002316F100DD3019CD1C58174500001305B5
:10163000255291448297F240624426854249D24421
:101640000561828001469305E00A2285EFF0DF8381
:1016500061FD1C54829709C91C58174500001305E9
:10166000255195448297C1BF5C4C8297AA8409C9D1
:101670001C58174500001305E5519944829765BF32
:101680008347A40381EF5C40829705CD1C58174522
:1016900000001305E5528297854471BF639B2701C3
:1016A0001C48829719CD1C58174500001305455357
:1016B000DDB71C5817550000130585879D44829798
:1016C0009DBF230C040285BF09C5230DB50201454A
:1016D00082800945828009C5A30CB502014582803C
:1016E0000945828005C90346850305476316E6025E
:1016F0003D47637EB7001C59411106C617550000CF
:101700001305C5988297B240114541018280014678
:101710006FF08FF7094582800D45828015C9834699
:10172000850305476398E6023D47637EB7001C5971
:10173000411106C617550000130545958297B24022
:10174000114541018280014693E505016FF0CFF319
:10175000094582800D4582801DC583468503054766
:101760008D476393E6020111A306B10093070002BF
:101770006C008146094606CE2306F100EFF0EFF833
:10178000F2400561828089473E8582802DC50348ED
:10179000850385460D476311D8060111139785010E
:1017A00006CE6187635D07001C59174500001305CD
:1017B000257A82971147F2403A8505618280131796
:1017C00086016187635A07001C59174500001305FD
:1017D000657A82971547C5B793071002A306B10033
:1017E0002307C10081460D466C002306F100EFF08F
:1017F000CFF12A87C9B709473A85828025C10348B6
:10180000850385460D47631CD804011106CE1D478C
:10181000637DB7001C591745000013056573829757
:101820001147F2403A8505618280637AC7001C59EE
:10183000174500001305057482971547DDB7930718
:101840002002A306B1002307C10081460D466C00AB
:101850002306F100EFF06FEB2A87E1B709473A85DD
:10186000828031C50348850385460D476312D8043D
:10187000011106CE3D47637DC7001C591745000086
:101880001305057A82971147F2403A8505618280F7
:1018900092054D8E93073002A306C100814609468A
:1018A0006C002306F100EFF04FE62A87F1BF0947ED
:1018B0003A85828025C98348850305480D4763948E
:1018C0000807011106CE1D47637DB7001C59175547
:1018D00000001305658682971147F2403A8505613D
:1018E0008280637AC7001C5917550000130545878D
:1018F00082971547DDB7930760029D8A2314F10094
:101900002305B100A305D1002306C100FD57814680
:101910001D462C00A30601002307F100EFF0EFDEC7
:101920002A8765BF09473A85828025C98348850390
:1019300005480D4763940807011106CE1D47637DD6
:10194000B7001C59174500001305856F8297114792
:10195000F2403A8505618280637AC7001C591745B9
:1019600000001305657082971547DDB79307700275
:101970009D8A2314F1002305B100A305D10023069D
:10198000C100FD5781461D462C00A3060100230718
:10199000F100EFF08FD72A8765BF09473A8582802B
:1019A00049C10343850385480D48631D1307011191
:1019B00006CE1D48637DB8001C591745000013056D
:1019C000256882971148F240428505618280637ADA
:1019D000C8001C5917450000130505698297154872
:1019E000DDB71308F003637AD8001C5917450000CF
:1019F0001305457982971948F9B793079002230593
:101A0000B1001D8B2306C100A306D10019468146F3
:101A10002C002314F100A305E100EFF00FCF2A887A
:101A20005DB709484285828049C1034385038548E3
:101A30000D48631D1307011106CE1D48637DB800D4
:101A40001C59174500001305A55F82971148F24005
:101A5000428505618280637AC8001C5917450000E1
:101A60001305856082971548DDB71308F003637A84
:101A7000D8001C59174500001305C57082971948F6
:101A8000F9B79307A0022305B1001D8B2306C100FF
:101A9000A306D100194681462C002314F100A305AA
:101AA000E100EFF08FC62A885DB709484285828041
:101AB00001CD8346850305478D476398E6000146BF
:101AC0009305E0026FF04FBC89473E85828001CDCF
:101AD0008346850305478D476398E60001469305D5
:101AE000F0026FF06FBA89473E8582801DC9834638
:101AF000850305476399E6021307F003637EB70089
:101B00001C59411106C6174500001305A54F8297C1
:101B1000B240114541018280014693E505046FF012
:101B2000AFB6094582800D4582801DC58346850379
:101B300005478D476393E6020111A306B1009307A1
:101B400010F86C008146094606CE2306F100EFF03E
:101B5000CFBBF2400561828089473E85828015C9EE
:101B60008346850305478D476396E6028A05011182
:101B700093E50501A306B1009307D0F86C008146F8
:101B8000094606CE2306F100EFF02FB8F2400561BA
:101B9000828089473E85828019CD0347850385472A
:101BA000631DF700014689C59305100A6FF0CFAD9C
:101BB0009305000AE5BF094582800D45828019CD55
:101BC000034785038547631DF700014689C59305D3
:101BD000500A6FF06FAB9305400AE5BF094582805C
:101BE0000D45828019CD034785038547631DF700A6
:101BF000014689C59305700A6FF00FA99305600A25
:101C0000E5BF094582800D45828025C103468503D5
:101C100085460D47631CD604011106CE3947636D16
:101C2000B7001C5917450000130505488297114756
:101C3000F2403A85056182801307F003637AB700AA
:101C40001C59174500001305654882971547CDB705
:101C5000930780FAA306B100814609466C0023066B
:101C6000F100EFF08FAA2A87E1B709473A85828011
:101C700019CD034785038547631DF700014689C5D4
:101C80009305F00A6FF04FA09305E00AE5BF094500
:101C900082800D45828019CD034785038547631DEA
:101CA000F700014689C59305800C6FF0EF9D930501
:101CB000000CE5BF094582800D45828029C5034699
:101CC000850385460D476311D604011106CE13071F
:101CD000F003637DB7001C591745000013058530DC
:101CE00082971147F2403A8505618280930730FD63
:101CF000A306B100814609466C002306F100EFF00F
:101D0000CFA02A87C5B709473A85828025C10348F5
:101D1000850385460D47631CD804011106CE3D4757
:101D2000637DB7001C59174500001305A52682974F
:101D30001147F2403A8505618280637AC7001C59D9
:101D4000174500001305C52782971547DDB7920593
:101D50004D8E930750FDA306C100814609466C00D5
:101D60002306F100EFF06F9A2A87E1B709473A8519
:101D700082801DC58346850305478D476393E60230
:101D80000111A306B100930760FD6C00814609466E
:101D900006CE2306F100EFF04F97F24005618280F6
:101DA00089473E85828025C10348850385460D47C6
:101DB000631CD804011106CE3D47637DB7001C5952
:101DC000174500001305C53282971147F2403A8546
:101DD00005618280637AC7001C591745000013050E
:101DE000653382971547DDB71206D18D930790FDB5
:101DF000A306B100814609466C002306F100EFF00E
:101E0000CF902A87E1B709473A85828005CD83467E
:101E1000850305478D476398E60216069205D18D26
:101E2000011193E52500A306B1009307A0FD6C0006
:101E30008146094606CE2306F100EFF00F8DF240F1
:101E40000561828089473E85828005C98346850376
:101E500005478D476394E60201119205A306B10080
:101E60009307B0FD6C008146094606CE2306F100BB
:101E7000EFF0AF89F2400561828089473E8582801C
:101E800041CD411113060004814506C622C42A84AF
:101E9000EFE0BFDB13060002974500009385C5DE27
:101EA0002285EF1000381306000297450000938545
:101EB00025DF13050402EF10C03613050404214684
:101EC000974500009385C5DEEF10601C9747000022
:101ED000938747DA9C43B24001453CC497470000D2
:101EE000938787D99C437CC497470000938707D981
:101EF0009C433CC897470000938787D89C433CCCC1
:101F000097470000938707D89C437CC89307007DC0
:101F10007CCC224441018280094582804111138595
:101F2000019A06C6EFF04FEDB2403335A0004101F3
:101F30008280717122D526D32946AA842E84481026
:101F400097550000938545B206D74AD14ECF52CD62
:101F5000EF10E013B7776431938737373EC8B73750
:101F60003600938737031D4697550000938585B04B
:101F700028003ECAEF10A011254697550000938512
:101F8000E5AF2808EF10A0101306C0438145138564
:101F9000C1DDEFE09FCB97170000938707A523AE25
:101FA000F1DC971700009387E7A523A0F1DE9717D0
:101FB0000000938767A523A2F1DE9717000093879F
:101FC00047AE23A4F1DE971700009387C7AD23A681
:101FD000F1DE97170000938747AD23A8F1DE97172E
:101FE00000009387C7AF23AAF1DE971700009387FD
:101FF00047AF23ACF1DE971700009387C7AE23AE3F
:10200000F1DE97170000938747AE23A0F1E0971702
:1020100000009387C7AD23A2F1E0971700009387D4
:1020200047AD23A4F1E097170000938747A823A8A2
:10203000F1E0081897170000938727A823A6F1E07E
:1020400081350DC11745000013058517EF00B02637
:1020500005442285BA502A549A540A59FA496A4AC0
:102060004D6182800C181745000013052517EF00FD
:1020700090248C08174500001305C517EF00B02306
:102080008C18174500001305E518EF00D022BA455B
:102090009307803E1307400633F6F502174500000C
:1020A000130505193356E602B3D5F502EF00B0204B
:1020B0006655EF00B06B2A86AE8617450000130503
:1020C0006519EF00501F7655EF00506A2A86AE86DC
:1020D000174500001305851AEF00F01D0A45EF00B3
:1020E000F0682A86AE86174500001305A51BEF0091
:1020F000901C2A45EF0090672A86AE86174500009F
:102100001305851CEF00301B1A45EF0030662A8648
:10211000AE86174500001305A51DEF00D019A68552
:102120001385C1DDEFF04FDA11C517450000130527
:10213000A51E29BFA2851385C1DDEFF0CFD911C53A
:10214000174500001305451F11B71385C1DDEFF0DA
:102150000FB311C5174500001305C51FC5BD814547
:102160001385C1DD313601CD17450000130505206B
:10217000EF0070141385C1DDEFF00FC8D1BD130659
:10218000F00781451385C1DDEFF04FE011C517451C
:1021900000001305A51FE9BF1D4681451385C1DD5C
:1021A000EFF0CFE511C5174500001305E520C9B7CD
:1021B00081451385C1DDEFF0EFD211C51745000051
:1021C0001305452275B781451385C1DDEFF00FD5A5
:1021D00011C5174500001305E52359BF8145138537
:1021E000C1DDEFF0BF9011C517450000130585252F
:1021F00041B7014681451385C1DDEFF08FE611C57A
:10220000174500001305C526A5B71385C1DDEFF0FE
:102210003F8A11C5174500001305C52791BF8145A9
:102220001385C1DDB93611C5174500001305052911
:1022300081B79305F00C1385C1DDEFF01F8F11C539
:10224000174500001305C52925B785451385C1DD50
:10225000EFF09F9411C5174500001305652A09BFCB
:1022600085451385C1DD053C11C5174500001305E3
:10227000652BFDBD81451385C1DDEFF0BF9611C50E
:10228000174500001305852CE5B59305F00313856C
:10229000C1DDEFF09F9711C5174500001305452DCF
:1022A000C1BD81451385C1DD113C11C51745000035
:1022B0001305852E75BD0146A1451385C1DDB934D1
:1022C00011C5174500001305A52F5DB53D46854591
:1022D0001385C1DDC93C11C51745000013058530C4
:1022E00041BD014685451385C1DD0D3611C5174534
:1022F00000001305A531ADBD89451385C1DDB1369B
:1023000011C517450000130565339DB58945138533
:10231000C1DDEFF06FC411C517450000130585340A
:1023200081BD85451385C1DDEFF07F8311C517455C
:102330000000130525362DBD81451385C1DDEFF065
:102340001F8811C5174500001305053715B58545CC
:102350001385C1DDEFF0DF91E31805E01385C1DDE2
:10236000EFE05FC011C5174500001305653709B5DB
:102370001745000013054538EF00E07317450000CE
:1023800013058539EF0020734810EF0070681317AC
:102390000501314885474183541001468145138525
:1023A000C1DDEFE09FD511C5174500001305453885
:1023B000C1B30808EF00D065131705013148854700
:1023C000418314083D4681451385C1DDEFE0FFD20E
:1023D00061FD2800EF00D0631317050131488547E0
:1023E000418334007D4681451385C1DDEFE0FFD098
:1023F00045FD2808EF00D0611317050131488547D6
:10240000418334081306F00281451385C1DDEFE0F6
:10241000DFCE59F91385C1DDEFE01FBE29F5056454
:10242000130584BBEF006068174500001305853273
:10243000EF0060681385C1DDEFE0DFB2E31505F260
:102440004810EF00F05C13170501414885474183B0
:102450005410014681451385C1DDEFE01FCA29F5FF
:102460000808EF00F05A13170501414885474183DA
:1024700014083D4681451385C1DDEFE01FC8E31513
:1024800005F22800EF00D058131705014148854791
:10249000418334007D4681451385C1DDEFE0FFC5F2
:1024A000E31405F02808EF00B05613170501414862
:1024B0008547418334081306F00281451385C1DD49
:1024C000EFE0BFC3E31205EE1385C1DDEFE0DFB23D
:1024D000E31B05E8130584BBEF00205D17450000F2
:1024E0001305C528EF00205D1385C1DDEFE09FA730
:1024F000E31B05E62800EF00B05113170501614802
:10250000854741833400014681451385C1DDEFE0F5
:10251000DFBEE31B05E82808EF00904F1317050105
:1025200061488547418334087D4681451385C1DD77
:10253000EFE0BFBCE31A05E61385C1DDEFE0DFABDA
:10254000E31305E2130584BBEF0020561745000096
:1025500013054523EF0020561385C1DDEFE09FA052
:10256000E31305E085473D47BD4601468145138598
:10257000C1DDEFE0DFD611C5174500001305452288
:10258000C5BE85477D47FD463D4681451385C1DD76
:10259000EFE0FFD475F185471307F0029306F002D0
:1025A0007D4681451385C1DDEFE07FD371F5854719
:1025B0001307F0039306F0031306F0028145138519
:1025C000C1DDEFE0DFD14DF91385C1DDEFE0DFA222
:1025D000E31B05D8130584BBEF00204D1745000011
:1025E0001305451EEF00204D1385C1DDEFE09F97D9
:1025F0002A84E31A05D6814409499389C1DD130A67
:102600000004EF005038B36625032286A6854E8568
:1026100093F6F60FEFE07FA701C9174500001305F9
:10262000251CB9B60144F1BF05041374F40FE31A75
:1026300044FD850493F4F40F93978401E187E3D379
:1026400007FE1385C1DDEFE03F9BE31E05D0056467
:10265000130584BB9929174500001305A51AA12964
:102660001385C1DDEFE01F90E31F05CE97E7FF1F45
:10267000938707531307F0039306F007014681453C
:102680001385C1DDEFE09FD211C51745000013058A
:10269000E518F9BC1385C1DDEFE01F96E31505CC05
:1026A000130584BB19211745000013056519212165
:1026B000174500001305451BFD2E1385C1DDEFE016
:1026C0007F8AE31205CA97E7FF1F9387674D1307B9
:1026D000F0039306F007014681451385C1DDEFE065
:1026E000FFCC45F51385C1DDEFE01F91E31D05C665
:1026F0001385C1DDEFF0CFBBE31E05B09D461D463F
:1027000081451385C1DDEFF0EF9A11C51745000033
:102710001305C517B1BC1385C1DDEFF04FBB19C55B
:1027200017450000130585196FF09FA40564130574
:102730008438A52E1385C1DDEFF08FB7E31C05ACFF
:10274000174500001305C519BD261385C1DDEFE04F
:102750007F81E31A05C097E7FF1F9387674413073C
:10276000F0039306F007014681451385C1DDEFE0D4
:10277000FFC3E31C05F01385C1DDEFE0FF87E31421
:1027800005BE9D461D4681451385C1DDEFF0EF99DD
:1027900019C5174500001305E5166FF07F9D1385D9
:1027A000C1DDEFF0CFB22DFD13058438FD2C13856C
:1027B000C1DDEFF0EFAFE31F05A4174500001305DF
:1027C0006517D52C1385C1DDEFE0CFF9E31D05B802
:1027D00097E7FF1F9387C73C1307F0039306F007A3
:1027E000014681451385C1DDEFE05FBCE31F05E8CD
:1027F0001385C1DDEFE05F80E31705B61D47930643
:10280000F0031D4681451385C1DDEFF06F9919C5B1
:10281000174500001305C5146FF09F951385C1DDA2
:10282000EFF0EFAAE31E05EE056513058538B52C1C
:102830001385C1DDEFF0CFA7E31E059C174500000F
:10284000130585158D2C1385C1DDEFE0AFF1E31C79
:1028500005B097E7FF1F9387A7341307F00393068C
:10286000F007014681451385C1DDEFE03FB4E31E6B
:1028700005E01385C1DDEFE02FF8E31605AE1D4737
:102880009306F0031D4681451385C1DDEFF0CF9916
:1028900019C5174500001305E5126FF07F8D1385EC
:1028A000C1DDEFF0CFA2E31D05E605641305843812
:1028B000ED2A1385C1DDEFF0AF9FE31D05941745A9
:1028C00000001305A513C52A1745000013050515BB
:1028D000DD221385C1DDEFE0EFE8E31605A88545AD
:1028E0001385C1DDEFF0EFC8E31005944810EF0049
:1028F00030121317050141488547418354100146A2
:1029000081451385C1DDEFE04FFFE31F05A80808EF
:10291000EF00101013170501414885474183140843
:102920003D4681451385C1DDEFE02FFDE31E05A681
:102930001385C1DDEFE04FECE31705A2130584BB5F
:10294000AD22174500001305A50EB522814513855C
:10295000C1DDEFF00FC2E319058C1385C1DDEFE097
:102960006FE0E31205A001468D451385C1DDEFE060
:102970005FEFE31705884810EF0090091317050172
:102980004148854741835410014681451385C1DD87
:10299000EFE0AFF6E31A05A00808EF007007131781
:1029A000050141488547418314083D46814513850B
:1029B000C1DDEFE08FF4E319059E1385C1DDEFE083
:1029C000AFE32A84E311059A096513050571F1281F
:1029D0001745000013054507F9281385C1DDEFE011
:1029E000BFC16FF00FE741118545316506C66D2205
:1029F00013052004EFE0EFB4B240014541018280AD
:102A000001458280357122CD4EC752C506CF26CBF7
:102A10004AC956C35AC1AA892E8A368409EEA5C668
:102A20000545FA406A44DA444A49BA492A4A9A4A68
:102A30000A4B0D6182800149B9C6B28A130B0008A6
:102A4000A28463748B0093040008C204C1802686AC
:102A5000B3852A0113051100230041010D2D1386B2
:102A60001400054785461376F60F8A854E85EFE0FC
:102A70008FB35DF5058C26994204420941801359B4
:102A800009015DFC79BF0547854605468A854E8567
:102A900023004101EFE02FB13335A00059B70145C4
:102AA000828001458280014582804205418117E391
:102AB000FF1F6700E3C979712ECAAA851745000078
:102AC000130585FC06C632CC36CE3AD03ED242D46F
:102AD00046D68D2DB24045618280014582800145F8
:102AE00082800145828001458280014582800145C6
:102AF0008280914763EEB70217470000130707F97A
:102B00008A05BA959C41BA978287B717004003A7F8
:102B1000470B1345F5FF698F23AAE70A03A7070BA5
:102B2000698F23A8E70A03A7070A798D23A0A70ABC
:102B30008280B717004083A6470B1347F5FFF98E35
:102B400023AAD70A83A6070B558D23A8A70A83A615
:102B5000070A758F23A0E70A8280B717004003A7F2
:102B6000470B498F23AAE70A03A7070B1345F5FF75
:102B700045BFB717004083A6470B1347F5FF758F76
:102B800023AAE70A03A7070A598D4DB7B7170040D4
:102B900003A7470B498FEDB7914763EEB70217477D
:102BA00000001307E7EF8A05BA959C41BA97828720
:102BB000B717004003A7470D1345F5FF698F23AAF8
:102BC000E70C03A7070D698F23A8E70C03A7070CE1
:102BD000798D23A0A70C8280B717004083A6470DEC
:102BE0001347F5FFF98E23AAD70C83A6070D558D41
:102BF00023A8A70C83A6070C758F23A0E70C82805F
:102C0000B717004003A7470D498F23AAE70C03A776
:102C1000070D1345F5FF45BFB717004083A6470DC5
:102C20001347F5FF758F23AAE70C03A7070C598DEF
:102C30004DB7B717004003A7470D498FEDB737577A
:102C400000408357078011C593E707102310F780D2
:102C50008280C207C18393F7F7EFC207C183FDB734
:102C6000375700408357078011C593E7072023108B
:102C7000F7808280C207C18393F7F7DFC207C18361
:102C8000FDB7375700408357078011C593E70740CA
:102C90002310F7808280C207C18393F7F7BFC20772
:102CA000C183FDB7B757004003D747804205418134
:102CB00089C5598D2392A78082801345F5FF798DB0
:102CC000D5BFB75700402398A7808280B7570040F0
:102CD00003D507811375F50F82803757004083575E
:102CE000078011C5A166D58F2310F7808280C607A3
:102CF000C583DDBF011126CAB754004022CC2E8403
:102D000083D504804AC82A892165C98D32C636C454
:102D10003AC23EC006CE2390B48001457D3F912A41
:102D200037480F00130808243358050383D544801F
:102D300082471247C205C18193F505FCC205C181D6
:102D40002392B48083D54480A2463246B365B8004E
:102D5000C205C1812392B48083D50480C205C1819C
:102D6000F999C205C1812390B480E1659385056A14
:102D700063ED850806043354850205669305C6FF96
:102D8000114542044180E18D81C51305F6FF618D37
:102D900005081306F003637406011308F0034208E4
:102DA0003756004013580801231006833756004059
:102DB000231EA68083550680F240624493E51500E9
:102DC0002310B68083550680D244C205C18193F595
:102DD00055BFC205C1812310B68083550680CD8EB4
:102DE000B3E62601C206C1822310D68083568680B0
:102DF00023140680835686804249D58FD98FC20717
:102E0000C1832314F6800561828015E68D45B305E4
:102E1000B4023355B5025205518111E105452166D1
:102E2000518D1306C0123308C8021306803E335872
:102E3000C8020508ADB7E5453304B4021166335541
:102E4000850252055181518DD9BFB757004003D734
:102E5000478103D587814205598D220521818280D2
:102E60001345F5FF42054181B7570040239AA780DB
:102E70008280B71700408847420541819377050457
:102E800091EB9377F5013755E8011305058033453C
:102E9000F50282809377050C130700046397E7001F
:102EA0009377F50137459C1CCDB72165130505D0F7
:102EB0008280814737370040A14663C4C70032850E
:102EC00082800345B740E38EA6FE3385F5000345B7
:102ED000050085072304A740CDB7970700209387F7
:102EE00067D29C431387C1213E95636EE500173777
:102EF0000020130727716368A7001707002023230A
:102F0000A7D03E858280FD57EDBF411122C406C681
:102F10002A8485372947B307E502B2408D83B3D7AA
:102F2000870222449507B3D7E70237370040C2072C
:102F3000C1832316F7404101828071654111130559
:102F4000052006C6D937B7370040130770F823812C
:102F5000E7400D47A381E74013070004A380E74043
:102F600005472387E740B24041018280135775012E
:102F70001377F70F41119307170022C426C21314C9
:102F8000950006C693F7E70F25809354F50185C792
:102F900093573400130707387604B2075207B183FA
:102FA0001395F401D98FC98FB240228522449244EF
:102FB000BE854101828005EB39C42285B128A9472D
:102FC00063C6A7042D47098F930755013357E400C3
:102FD0003314F4009317C70013079038098FB18397
:102FE0001377F77F5DBF01CC13573400B707080094
:102FF000D98FB2077604B1831307F07F79BF130727
:10300000F07F814759BF0147814741BF130755FFF3
:103010003317E40001447DBFC167637EF502930767
:10302000F00F1307000263ECA70097470000938797
:1030300067A8AA9703C507003305A74082802181AE
:1030400097470000938707A7AA9703C50700614722
:103050003305A7408280B7070001636EF5006181E8
:1030600097470000938707A5AA9703C50700214744
:103070003305A7408280418197470000938787A34B
:10308000AA9703C5070041473305A7408280B3C70D
:10309000A5008D8B3307C50081E78D4763EEC70020
:1030A000AA876370E50A83C6050085078505A38F97
:1030B000D7FEE3EAE7FE828093763500AA8791CABD
:1030C00083C6050085078505A38FD7FE93F63700D5
:1030D000FDB79376C7FF138606FE63F0C70683A38A
:1030E000050083A2450083AF850003AFC50083AE12
:1030F000050103AE450103A3850183A8C50193859E
:10310000450223A0770003A8C5FF23A2570023A4EC
:10311000F70123A6E70123A8D70123AAC70123ACFF
:10312000670023AE17019387470223AE07FF75B7E9
:1031300090419107910523AEC7FEE3EBD7FEE3E490
:10314000E7F6828039713EDA2ED232D436D63AD8BA
:1031500042DC46DE97070020938707AB22CC8043F2
:1031600026CA06CEAA8409C41C4C99E32285492AA2
:103170000C4454102686228536C6C529F240624486
:10318000D244216182804111970700209387C7A70D
:1031900022C4804306C61C5C95EB6145E92CB73719
:1031A000CDAB08DC9387E7301CC1B7176DE693877A
:1031B00047235CC1B7E705009387C7EE1CC5AD4741
:1031C0002316F5000547814718C95CC9105C37878D
:1031D000954CB7F75158144A484A1307D7F29387CA
:1031E000D742B387F602B24022443305E5023E954A
:1031F000B387E60233B7E6029386170014CA2A970C
:1032000033B5F6003A9548CA06050581410182802A
:10321000AA87850703C7F7FF6DFF3385A7407D1594
:103220008280AA8709CA850503C7F5FF85077D1631
:10323000A38FE7FE65FB3E966393C70082808507F8
:10324000A38F07FED5BF411122C406C62A842316C8
:10325000B5002317C50023200500232205002324E1
:1032600005002322050623280500232A0500232C18
:103270000500214681451305C505EFD01F9D971711
:1032800000009387A7A65CD097170000938707A933
:103290001CD497170000938747AD5CD497170000A4
:1032A000938707B000D01CD8B240224441018280ED
:1032B000971500009385C5E589AA411126C213061A
:1032C00080069384F5FFB384C4024AC02E8922C4C9
:1032D00006C693854407992C2A8401CD2320050036
:1032E00023222501310508C4138684068145EFD0C9
:1032F000DF952285B24022449244024941018280F6
:103300001C4DBDE3411106C622C4970700009387F8
:1033100067FA1CD597470000938787939C43232423
:10332000050423260504232805046314F5008547B6
:103330001CCD2A841D2848C02285052808C4228562
:103340002D2048C4484001469145F53D08440546B6
:10335000A545D53D48440946C945F53585471CCCAA
:10336000B24022444101828082804111974700008F
:103370009387078E26C284434AC006C69C4C22C44B
:103380002A8999E32685AD3F938484048044DC40F8
:10339000FD1763D607009C40B9CF8440C5BF031713
:1033A000C40039E7C17785072322040623200400DF
:1033B00023220400232404005CC423280400232ABD
:1033C0000400232C0400214681451305C405EFD0D9
:1033D000DF87232A0402232C040223240404232647
:1033E00004042285B2402244924402494101828071
:1033F0001304840671BF91454A85C13588C051FDCB
:10340000B1472320F9000144E9BF797122D44AD0A1
:1034100052CC56CA5AC85EC606D626D24ECE2A8A84
:10342000AE8A130485040149054BFD5B09ECB250DB
:1034300022544A8592540259F249624AD24A424B76
:10344000B24B45618280044483294400FD1963D452
:1034500009000040E1BF83D7C400637BFB00839772
:10346000E40063877701A6855285829A3369A900B3
:1034700093848406E1BF97F7FF1F9387E778AA85B7
:1034800088436DA0DDC183A7C5FF411122C406C6D4
:1034900026C21384C5FF63D307003E94AA84EF00BD
:1034A0001061938781819C4381EF2322040023AC28
:1034B00081802244B2402685924441016F00505FD2
:1034C000637EF40014403307D4006396E70098430A
:1034D000DC43369718C05CC0D9BFBA87D84319C33C
:1034E000E37DE4FE94433386D700631F86001040DB
:1034F000B29694C33386D700E31DC7FA10435843EE
:10350000B29694C3D8C375B76375C400B1479CC065
:103510004DB71040B306C4006316D7001443584398
:10352000B29614C058C0C0C369B78280011126CAC0
:1035300093843500F19806CE22CC4AC84EC6A10429
:10354000B14763F3F404B14463E2B4042A89EF00A1
:1035500010569387818198433A8439E09387C181DB
:103560009C4391E781454A85992F23AEA180A6858A
:103570004A85B127FD5963193507B1472320F90062
:103580004A85EF00F05229A0E3D004FCB1471CC1EA
:103590000145F2406244D2444249B2490561828009
:1035A0001C40858F63CF0702AD4663F6F6001CC052
:1035B0003E9404C031A05C406313870223ACF180C9
:1035C0004A85EF00F04E1305B4009307440061995B
:1035D0003307F5405DDF3A94898F1CC05DBF5CC343
:1035E000C5B72287404095BF130435007198E302A8
:1035F00085FCB305A4404A85D925E31C35FBB5BF3E
:103600001C46FD171CC663D90700184E63C5E700AA
:10361000A9476393F50071A71C422E8513871700F5
:1036200018C22380B7008280011122CC26CA4AC862
:103630004EC652C406CE2A89AE893284B304D6005F
:103640007D5A63149400014509A8834504004E8601
:103650004A857D370504E31645FFF2406244D244B3
:103660004249B249224A05618280357122CD26CB7A
:103670004AC94EC706CF52C556C35AC1DEDEE2DC88
:10368000E6DAAA89AE843289368409C51C4D99E3ED
:10369000EFF01FC7973700009387C753639CF40C64
:1036A00083A4490083D7C400A18BFDC79C48EDC704
:1036B00093070002A304F1029307000302D223053B
:1036C000F10222C6930B5002973A0000938A8A5463
:1036D000054C294B4A848347040099C36390770FB4
:1036E000B30C2441638D0C00E6864A86A6854E8580
:1036F000253FFD576308F51E9256E69636D283475E
:1037000004006381071EFD571309140002C802CE8E
:103710003ECA02CCA309010482D4834509001546A0
:103720005685EF00303713041900C24751E913F7EB
:10373000070109C713070002A309E10413F7870073
:1037400009C71307B002A309E10483460900130760
:10375000A002638FE606F2474A8481462546034766
:10376000040093051400130707FD6378E60AADCA49
:103770003ECEBDA0973700009387C7476395F400FE
:1037800083A4890005B7973700009387A742E39B7E
:10379000F4F083A4C90039B7A6854E85DD2D09D97B
:1037A0007D55FA406A44DA444A49BA492A4A9A4A53
:1037B0000A4BF65B665CD65C0D618280050421BF16
:1037C000330555413315AC00C98F3EC82289B1B7C6
:1037D000324793064700184336C6634907023ACE7C
:1037E000034704009307E002631FF7040347140034
:1037F0009307A002631BF702B2470904138747002F
:103800009C433AC663C107023ECA35A83307E0406D
:1038100093E727003ACE3EC8E1B7B38767038546F2
:103820002E84BA972DBFFD57C5B7050402CA81463D
:10383000814725460347040093051400130707FD3D
:103840006378E606F1F2834504000D461735000063
:103850001305C53CEF00102411CD97370000938766
:10386000E73B1D8D93070004B397A700424505046D
:103870005D8D2AC8834504001946173500001305DD
:10388000253A130914002304B102EF00B0203DC112
:1038900097C7FFFF9387077795E74247B2471377AC
:1038A000071009CF91073EC69257D2973ED21DB559
:1038B000B387670385462E84BA97ADBF9D07E19B0A
:1038C000A107D5B7780097060000938626D62686EE
:1038D0000C084E8597000000E7000000FD572A8A7B
:1038E000E314F5FC83D7C40093F70704E39A07EACF
:1038F000125545BD780097060000938626D326868C
:103900000C084E85012AD9BF797156CA9C49BA8ADA
:10391000984522D426D24ECE52CC06D64AD05AC88A
:103920005EC6AA892E84B284368A63D3E700BA873A
:103930009CC00347340419C385079CC01C4093F7FF
:10394000070281C79C4089079CC0032904001379A2
:103950006900631A0900130B9401FD5B5C449840F5
:10396000998F634CF9041C408346340493F7070293
:10397000B336D000A5EB13063404D2854E85829A67
:10398000FD576303F5041C4011469840998B54443D
:1039900081446397C700B384E64063D30400814445
:1039A0001C4418486354F700998FBE940149690478
:1039B0007D5B63982405014509A885465A86D28512
:1039C0004E85829A631E75017D55B25022549254E1
:1039D0000259F249624AD24A424BB24B4561828057
:1039E0000509ADBF3307D40013060003A301C704C4
:1039F0000347540493871600A2978906A381E7041E
:103A00009DBF85462286D2854E85829AE30E65FB50
:103A1000050945B7797122D426D24AD04ECE06D6B2
:103A200052CC56CA5AC8B68983C6850193079006F8
:103A30003289AA842E8413863504638DF60263E2EC
:103A4000D706930780056388F61863EDD700638176
:103A5000062293073004638FF60A930A2404230195
:103A6000D404D1A0930730066386F60A9307400674
:103A7000E395F6FE1C40084393F6070893054500BE
:103A8000CDC61C410CC363D807001307D002B3078F
:103A9000F040A301E404973600009386E618294716
:103AA00075A8930700076384F61663E5D7029307AA
:103AB000E006638BF6189307F006E390F6FA0C40E5
:103AC0001C4313F80508138547006308080608C35C
:103AD0009C4395A893075007E383F6FE930780075E
:103AE000638BF61293073007E399F6F61C43D04137
:103AF00081459386470014C383AA07005685EF00CB
:103B0000607901C53305554148C05C401CC8A3011C
:103B1000040471A81C43930A2404938647009C4321
:103B200014C32301F4048547D5B793F607041C4159
:103B30000CC3B1DAC207C187B9B793F5050408C34E
:103B4000C1D983D707001307F0066387E60E9736BF
:103B500000009386660D2947A30104044C400CC461
:103B600063C5050008406D9908C099E3B28A91CDFC
:103B7000B28AB3F5E702FD1AB69583C50500238026
:103B8000BA00B3D5E70263FFE70AA147631EF70057
:103B90001C40858B91CB58401C4863C7E7009307B6
:103BA0000003A38FFAFEFD1A3306564110C84E8754
:103BB000CA867000A2852685813B7D5A631E450B0F
:103BC0007D55B250225492540259F249624AD24A67
:103BD000424B45618280A382D504973600009386CC
:103BE000A6040C40084313F805081C411105630D99
:103BF000080208C313F7150001C793E505020CC0BE
:103C00004147B9FB0C4093F5F5FD0CC0B1B79C41A1
:103C100093E707029CC193078007A302F404973639
:103C200000009386A60175BF13F8050408C3E303DB
:103C300008FCC207C1837DBF973600009386C6FE8D
:103C4000214719BFAE8735B794411C43CC4913F8BF
:103C50000608138547006306080008C39C438CC30D
:103C600001A808C393F606049C43F5DA2390B70035
:103C700023280400B28A25BF14485686CA852685A3
:103C80008299E30F45F31C40898B8DE7B247484486
:103C9000E359F5F23E8535B785465686CA852685B1
:103CA0008299E30F65F1050A5C443247998FE34539
:103CB000FAFEE9BF014A930A94017D5BF5B7411111
:103CC00022C42A842E8523AC012006C6EFF0EFA083
:103CD000FD576317F500938781219C4391C31CC056
:103CE000B240224441018280411122C42E84839536
:103CF000E50006C67D2B634905007C48AA977CC871
:103D0000B2402244410182808357C4007D777D17F1
:103D1000F98F2316F400EDB783D7C500011122CC2B
:103D200026CA4AC84EC606CE93F70710AA842E8428
:103D30003289B68991C78395E500894601461529E0
:103D40008357C4007D777D17F98F2316F400831500
:103D5000E4006244F240CE864A86B2494249268552
:103D6000D244056101A2411122C42E848395E5004D
:103D700006C60121FD570357C400631BF500FD77FC
:103D8000FD17F98F2316F400B240224441018280CE
:103D90008567D98F2316F40068C8FDB78395E500C1
:103DA00019A4011122CC26CA4AC806CE4EC6AA843E
:103DB0002E89328409C51C4D99E3EFF06FD49737F3
:103DC0000000938727E16319F406C0401C4C1CC413
:103DD0008357C400A18BC9C31C48BDCF1C480840F1
:103DE0009379F90F1379F90F1D8D5C486346F5003F
:103DF000A2852685212E2DE51C440505FD171CC432
:103E00001C401387170018C0238037015C48638962
:103E1000A7008357C400858B81CBA9476316F9009F
:103E2000A2852685E5240DEDF24062444A85D24400
:103E30004249B2490561828097370000938787DB4A
:103E40006314F400804459B797370000938787D6EE
:103E5000E31EF4F6C0449DBFA28526851D283DDDE6
:103E60007D59D9B7411122C42A842E85B285368660
:103E700023AC012006C6EFF0CF83FD576317F50092
:103E8000938781219C4391C31CC0B24022444101CD
:103E90008280411197F7FF1F938707D726C284437B
:103EA00022C44AC006C62A892E8491C49C4C81E74C
:103EB0002685EFF0EFC4973700009387A7D1631CE6
:103EC000F402C0400317C40093170701C18393F69F
:103ED0008700BDEE93F607019DEEA5472320F9006C
:103EE000136707042316E4007D55B2402244924430
:103EF000024941018280973700009387A7CF63145E
:103F0000F4008044C1B7973700009387A7CAE31B2A
:103F1000F4FAC04445BF918B95C74C5891C993079B
:103F200044046385F5004A85EFF0CFD5232A0402C7
:103F30008357C4002322040093F7B7FD2316F4002F
:103F40001C481CC08357C40093E787002316F40065
:103F50001C4881EF8357C4001307002093F70728FC
:103F60006385E700A2854A8579248357C40013F747
:103F7000170005C75C4823240400B307F0401CCC9D
:103F80001C480145BDF38317C40013F7070831DF50
:103F900093E707042316F40081BF898B014791E35F
:103FA000584818C4F1BF411122C42A842E8523AC7D
:103FB000012006C6B52EFD576317F50093878121B2
:103FC0009C4391C31CC0B24022444101828083D7EC
:103FD000C500011122CC26CA06CE4AC84EC613F728
:103FE0008700AA842E8479EFD841634DE000B84160
:103FF000634AE0000145F2406244D2444249B2497A
:104000000561828058547DD703A904009396370137
:1040100023A0040063DE060670488357C400918B1A
:1040200099C75C401D8E5C5899C33C401D8E5C5402
:104030000C50814626858297FD570357C400631DA7
:10404000F5009440F54763E9D706B7074020850798
:10405000B3D7D700858BADC31C48232204001CC0F6
:104060009317370163D80700FD576314F5009C4090
:1040700091E368C84C5823A02401ADDD93074404A4
:104080006385F5002685EFF0EFBF232A04029DB774
:104090000C500146854626850297FD572A86E31E69
:1040A000F5F69C40BDDB75476385E700594763948F
:1040B000E70423A024013DBF136707042316E4008F
:1040C0007D5515BF83A90501E38609F203A9050003
:1040D0008D8B23A0350133093941014791E3D8493C
:1040E00018C4E35920F11C540C50CA864E8626850C
:1040F00082976349A0008357C40093E707042316FF
:10410000F4007DBFAA993309A940E1BF9C49A5C32A
:10411000011122CC06CE2A8419C51C4D89E72EC672
:10412000EFF00F9EB245973700009387A7AA639BD5
:10413000F5004C408397C50095C722856244F24044
:10414000056171B5973700009387C7AA6394F5009E
:104150000C44CDB7973700009387C7A5E39CF5FCC7
:104160004C44C9BFF240624401450561828001456B
:104170008280411122C42A842E85B285368623ACE2
:10418000012006C6C12AFD576317F50093878121D8
:104190009C4391C31CC0B2402244410182801971EA
:1041A000A6DAAE848395E500A2DC86DE328463DC89
:1041B000050083D7C40023A0060093F707089DE3FA
:1041C0009307004015A0300836C6112AB246E342D4
:1041D00005FE7247BD67F98F7977BA9793B71700D5
:1041E0009CC2F9BF930700041CC0F6506654D65415
:1041F00001450961828083D7C500011122CC06CE1A
:1042000026CA4AC8898B2E8489CF930774041CC0A0
:104210001CC885475CC8F2406244D24442490561EB
:10422000828074003000AA849D3FA2452A89268599
:10423000EFF0CFAF01ED8317C40013F7072061FF44
:10424000F19B93E727002316F400C1B797F7FFFF10
:10425000938747069CD48357C40008C008C893E7D7
:1042600007082316F400A2475CC8B24789CF83151C
:10427000E4002685512801C98357C400F19B93E7C8
:1042800017002316F4008357C4003369F90023167E
:10429000240151B793F5F50F2A966314C500014523
:1042A000828083470500E38DB7FE0505FDB7828058
:1042B0008280411122C42A842E85B285368623ACA1
:1042C000012006C67128FD576317F50093878121E9
:1042D0009C4391C31CC0B2402244410182804111E1
:1042E00022C42A842E85B28523AC012006C6B920BB
:1042F000FD576317F500938781219C4391C31CC030
:10430000B240224441018280411122C42A842E8578
:1043100023AC012006C60D28FD576317F5009387CF
:1043200081219C4391C31CC0B24022444101828040
:104330009307800523ACF1207D558280930780058B
:1043400023ACF1207D5582809307800523ACF120BA
:10435000014582809307800523ACF1207D55828042
:104360009307800523ACF1207D558280000000007A
:104370000000000000000000000000003F400000BE
:10438000000000000000300040003000400000004D
:1043900009000BC03D000BC03D00090018C02440BF
:1043A0007FE0224031800000180024C01B000D80F7
:1043B0003240018003801C4027401C8007400040A1
:1043C000100060000000000000000000000000007D
:1043D00000001F80204040200000402020401F801F
:1043E00000000000090006001F8006000900000010
:1043F000040004003F80040004000000001000607E
:10440000000000000000000004000400040004009C
:104410000400000000000040000000000000000058
:10442000002001C006003800400000001F8020402E
:10443000204020401F800000000010403FC000408E
:104440000000000018C02140224024401840000015
:1044500010802040244024401B80000002000D00FA
:1044600011003FC0014000003C8024402440244013
:10447000238000001F80244024403440038000003B
:104480003000200027C03800200000001B8024409E
:10449000244024401B8000001C0022C022402240F7
:1044A0001F80000000000000084000000000000025
:1044B0000000000004600000000000000000040094
:1044C0000A0011002080404009000900090009008D
:1044D0000900000000004040208011000A00040094
:1044E0001800200023402400180000001F802040F6
:1044F000274029401F400000004007C039000F003E
:1045000001C0004020403FC0244024401B800000E8
:104510001F802040204020403080000020403FC0CD
:10452000204020401F80000020403FC024402E40FB
:1045300030C0000020403FC024402E00300000006A
:104540000F001080204022403380020020403FC0F6
:10455000040004003FC02040204020403FC02040D5
:10456000204000000060202020203FC020002000CC
:1045700020403FC024400B0030C0204020403FC0BE
:1045800020400040004000C03FC03C0003C03C0051
:104590003FC0000020403FC00C4023003FC020002F
:1045A0001F802040204020401F80000020403FC04E
:1045B00024402400180000001F802140214020E0FA
:1045C0001FA0000020403FC02440260019C000402A
:1045D00018C0244024402240318000003000204098
:1045E0003FC020403000000020003F8000400040DD
:1045F0003F80200020003E0001C00700380020005E
:10460000380007C03C0007C038000000204039C017
:10461000060039C0204000002000384007C0384064
:1046200020000000304021C02640384020C000005B
:10463000000000007FE040204020000000007000EB
:104640000C000380004000000000402040207FE07C
:1046500000000000000020004000200000000000DA
:1046600000100010001000100010001000000000EA
:1046700040000000000000000000028005400540EE
:1046800003C0004020003FC00440044003800000FD
:104690000000038004400440064000000000038046
:1046A000044024403FC00040000003800540054016
:1046B00003400000000004401FC0244024402000AC
:1046C000000002E0055005500650042020403FC085
:1046D0000440040003C000400000044027C0004024
:1046E0000000000000100010041027E0000000008F
:1046F00020403FC00140070004C00440204020404B
:104700003FC000400040000007C0040007C0040094
:1047100003C00000044007C00440040003C0004080
:10472000000003800440044003800000041007F0F0
:104730000450044003800000000003800440045043
:1047400007F00010044007C002400400040000000D
:10475000000006400540054004C0000000000400C1
:104760001F80044000400000040007800040044017
:1047700007C000400400070004C0018006000400D8
:10478000060001C0070001C006000000044006C08A
:10479000010006C0044000000410071004E001807E
:1047A000060004000000044005C00640044000006C
:1047B0000000000004007BE040200000000000003A
:1047C0000000FFF000000000000040207BE004003B
:1047D0000000000040008000400020002000400059
:1047E00000000000000000000000000000000000C9
:1047F0000000000000001FCC000C000000000000C2
:104800000000080030006000080030006000000078
:10481000022003FC1E20022003FC1E2002200000B8
:1048200000000E1811043FFF10840C7800000000F7
:104830000F0010840F3800C007781884007800003B
:1048400000780F8410C411240E9800E4008400083E
:104850000800680070000000000000000000000078
:1048600000000000000007E01818200440020000CB
:10487000000040022004181807E0000000000000BB
:104880000240024001800FF001800240024000001F
:104890000080008000800FF8008000800080000011
:1048A0000001000D000E00000000000000000000EC
:1048B0000000008000800080008000800080008078
:1048C0000000000C000C00000000000000000000D0
:1048D000000000060018006001800600180020009B
:1048E000000007F0080810041004080807F0000092
:1048F0000000080408041FFC00040004000000007D
:1049000000000E0C10141024104411840E0C000032
:1049100000000C1810041104110412880C7000001F
:10492000000000E00320042408241FFC00240000F1
:1049300000001F98108411041104108810700000EA
:10494000000007F0088811041104188800700000A6
:1049500000001C00100010FC13001C0010000000E0
:1049600000000E3811441084108411440E380000E9
:1049700000000700088C10441044088807F000006D
:10498000000000000000030C030C00000000000009
:10499000000000000001010600000000000000000F
:1049A00000000080014002200410080810040000EC
:1049B0000220022002200220022002200220000009
:1049C00000001004080804100220014000800000CC
:1049D00000000E001200100C106C10800F00000080
:1049E00003E00C1813E4142417C4082807D00000AF
:1049F0000004003C03C41C40074000E4001C000409
:104A000010041FFC1104110411040E880070000032
:104A100003E00C1810041004100410081C1000000F
:104A200010041FFC100410041004080807F0000014
:104A300010041FFC1104110417C41004081800000E
:104A400010041FFC1104110017C010000800000022
:104A500003E00C181004100410441C7800400000FF
:104A600010041FFC10840080008010841FFC1004C0
:104A70000000100410041FFC1004100400000000CB
:104A800000030001100110011FFE100010000000C3
:104A900010041FFC110403801464181C100400008F
:104AA00010041FFC1004000400040004000C0000AB
:104AB00010041FFC1F0000FC1F001FFC100400005E
:104AC00010041FFC0C04030000E010181FFC100071
:104AD00007F00808100410041004080807F000008C
:104AE00010041FFC10841080108010800F00000044
:104AF00007F0081810241024101C080A07F2000000
:104B000010041FFC1104110011C011300E0C000420
:104B100000000E1C11041084108410441C38000086
:104B20001800100010041FFC1004100018000000F2
:104B300010001FF810040004000410041FF81000F7
:104B400010001E0011E0001C007013801C001000FB
:104B50001FC0103C00E01F0000E0103C1FC0000020
:104B60001004180C163401C001C01634180C1004BF
:104B700010001C00130400FC13041C0010000000B3
:104B80000804101C1064108413041C041018000086
:104B90000000000000007FFE4002400240020000D2
:104BA000000030000C0003800060001C00030000C7
:104BB00000004002400240027FFE000000000000B2
:104BC00000000000200040004000400020000000E5
:104BD00000010001000100010001000100010001CD
:104BE0000000400040002000000000000000000025
:104BF00000000098012401440144014400FC000429
:104C000010001FFC008801040104008800700000EF
:104C10000000007000880104010401040088000005
:104C20000000007000880104010411081FFC00044A
:104C3000000000F8014401440144014400C80000A0
:104C40000000010401040FFC1104110411001800FC
:104C5000000000D601290129012901C9010600002F
:104C600010041FFC008401000100010400FC00048A
:104C700000000104190419FC0004000400000000F5
:104C80000000000300010101190119FE00000000ED
:104C900010041FFC0024004001B4010C01040000BA
:104CA0000000100410041FFC0004000400000000B9
:104CB000010401FC0104010001FC0104010000FCED
:104CC000010401FC008401000100010400FC000457
:104CD000000000F8010401040104010400F80000D0
:104CE000010101FF0085010401040088007000003B
:104CF00000000070008801040104010501FF0001AB
:104D00000104010401FC0084010401000180000091
:104D1000000000CC0124012401240124019800009A
:104D200000000100010007F8010401040000000078
:104D3000010001F8000400040004010801FC000463
:104D4000010001800170000C001001600180010071
:104D500001F0010C003001C00030010C01F0010035
:104D600000000104018C00740170018C010400003A
:104D7000010101810171000E001801600180010034
:104D800000000184010C013401440184010C000085
:104D9000000000000000000001003EFC4002400254
:104DA0000000000000000000FFFF00000000000005
:104DB0000000400240023EFC010000000000000034
:104DC00000006000800080004000400020002000C3
:104DD00000000000000000000000000000000000D3
:104DE00000000000000000000000000000000000C3
:104DF00000000000000000000000000000000000B3
:104E00000000000F80380FFE380F803800000000CF
:104E10000000000000000000000000000000010091
:104E2000000600000C000038000031000006000001
:104E30000C000038000030000000000000000000FE
:104E400061800067F807F98000618000618000617F
:104E5000800061800067F807F98000618000000031
:104E600000000000000001C0E003E0F0063008048C
:104E700018081FFFFE040E080787F00381E00000FA
:104E80000000000001F000060C00040408060C708D
:104E900001F9C0000E00003BE000EC180708080410
:104EA0000C180003E00000000001E00007F003F828
:104EB00018041C0804170807E1D003C0E00023B061
:104EC000003C080020080000100000000000000165
:104ED00000003100003200001C0000000000000053
:104EE00000000000000000000000000000000000C2
:104EF00000000000000000000000000000000000B2
:104F00007F0001FFC00780F00C0018100004200093
:104F1000020000000000002000021000040C001835
:104F20000780F001FFC0007F0000000000000000CB
:104F300000000000000000000000000042000066C9
:104F400000006600003C0000180003FFC0001800CD
:104F5000003C000066000066000042000000000007
:104F6000080000080000080000080000080001FF19
:104F7000C000080000080000080000080000080049
:104F800000000000000100003100003200001C00A1
:104F90000000000000000000000000000000000011
:104FA00000000000000000000800000800000800E9
:104FB00000080000080000080000080000080000C9
:104FC00008000008000000000000000000000000D1
:104FD0003800003800003800000000000000000029
:104FE00000000000000000000000000000000000C1
:104FF000000600001C000070000180000E00003858
:105000000000C0000700001C00003000000000008D
:10501000000000007F8001FFE0038070060018049C
:10502000000804000806001803807001FFE0007FFC
:1050300080000000000000000000010008010008DE
:1050400001000803FFF807FFF8000008000008004F
:10505000000800000000000000000001C03802C08D
:1050600058040098040118040218040418061C18B7
:1050700003F81801E0F80000000000000000000143
:10508000C0E003C0F004000804080804080806187B
:105090000803F41801E7F00001E000000000000040
:1050A000000000000300000D00001100006100007E
:1050B000810803010807FFF80FFFF800010800014D
:1050C000080000000000000000E007FCD00608080F
:1050D000061008061008061008061838060FF00615
:1050E00007C0000000000000000000003F8001FF3A
:1050F000E0038430020818041008041008041008A3
:10510000071810030FF00007C000000000000000A7
:10511000000003C0000700000600000600F80607B4
:10512000F806180006E00007000006000000000076
:1051300000000001E1E003F7F00634100418080451
:105140001808040C08040C0806161803F3F001C133
:10515000E000000000000000F80003FC3003063807
:105160000402080402080402080404100308F00101
:10517000FFC0007F000000000000000000000000F1
:105180000000000000000000703800703800703827
:10519000000000000000000000000000000000000F
:1051A000000000000000000000000000301A003085
:1051B0001C000000000000000000000000000000D3
:1051C00000000000000000080000140000220000A1
:1051D000410000808001004002002004001008000F
:1051E0000800000000000000210000210000210054
:1051F000002100002100002100002100002100000A
:105200002100002100000000000000000000080054
:1052100008040010020020010040008080004100CE
:10522000002200001400000800000000000000033D
:10523000C00004C000040000080038080F38080847
:10524000380810000C300007E00003C00000000028
:10525000000000003F8000FFE0038070020F100696
:10526000708804C088048308047F8802C09003010A
:105270002000FE400000080000180001F8003E0871
:1052800001C20007020007E20000FE00001FC80084
:1052900001F800003800000804000807FFF807FFC5
:1052A000F804080804080804080804080806180890
:1052B00003F41801E7F00001E00000000000000026
:1052C0003F8001FFE0038070020018040008040022
:1052D000080400080400100600200780C000000039
:1052E00004000807FFF807FFF8040008040008049A
:1052F000000804001802001003807001FFE0007F26
:105300008000000004000807FFF807FFF804080801
:10531000040808040808040808043E0804000806F5
:10532000001801006000000004000807FFF807FFF4
:10533000F8040808040800040800040800043E00FB
:1053400006000006000001800000000000000000D0
:105350003F8001FFE003807006001804000804028B
:10536000080402080203F00783F0000200000200B4
:1053700004000807FFF807FFF80408080008000009
:10538000080000080000080004080807FFF807FFED
:10539000F8040008000000000000040008040008F1
:1053A00004000807FFF807FFF804000804000804D9
:1053B00000080000000000000000000000060000DF
:1053C0000700000104000104000104000307FFFEC0
:1053D00007FFFC04000004000004000004000807AC
:1053E000FFF807FFF8040C08001800003E0004C78F
:1053F000800503C80600F8040038040018000008FF
:1054000004000807FFF807FFF80400080000080080
:105410000008000008000008000008000018000054
:105420006000000004000807FFF807800807FC0080
:10543000007FC00003F80007C0007800078008075D
:10544000FFF807FFF804000804000807FFF807004A
:105450000803C00000E000003800001E0000070044
:105460000001C00400F007FFF80400000000000085
:105470007F8001FFE003807006001804000804002C
:105480000806001803003001FFE0007F80000000E4
:1054900004000807FFF807FFF804040804040004E8
:1054A0000400040400040400060C0003F80001F0EA
:1054B00000000000000000007F8001FFE00380701A
:1054C0000600880400880400C806003C03003E0172
:1054D000FFE6007F8400000004000807FFF807FFD4
:1054E000F8040808040800040C00040F00040BC0B2
:1054F0000610F003F03801E0080000080000000189
:10550000E0F803F030063010041808041808040C02
:1055100008040C080206180207F00781E0000000EA
:1055200001800006000004000004000004000807D9
:10553000FFF807FFF804000804000004000006005C
:105540000001800004000007FFE007FFF0040018DE
:10555000000008000008000008000008000008041F
:10556000001007FFE004000004000006000007E050
:105570000007FE00041FE00001F80000380001E011
:10558000043E0007C00006000004000004000007FD
:10559000E00007FFC0041FF80007C007F80007FF7E
:1055A00080043FF80007C004F80007000004000072
:1055B00000000004000806001807C07805F1C800C4
:1055C0003E00001F800463E80780F806001804000E
:1055D0000800000004000006000007800007E00843
:1055E000047C08001FF80007F800180804E008070A
:1055F0000000060000040000000000010008060092
:10560000380400F80403E8040F08047C0805F008D7
:1056100007C0080700180400600000000000000038
:1056200000000000000000000000003FFFFE20001E
:1056300002200002200002200002200002000000E0
:1056400000000000000008000007000000C000008B
:1056500038000006000001C000003000000E00000D
:1056600001000000000000000000200002200002F5
:105670002000022000022000023FFFFE0000000088
:10568000000000000000000000000000000000001A
:105690000008000010000030000020000030000072
:1056A00010000008000000000000000000000100E1
:1056B00000010000010000010000010000010000E5
:1056C00001000001000001000001000001000001D4
:1056D000000000000000000000200000200000107A
:1056E00000001000000000000000000000000000AA
:1056F000000000000000000000F00019F8001B1876
:10570000002208002608002408002410003FF800AA
:105710001FF800000800001800000004000007FF48
:10572000F80FFFF0001818001008002008002008EB
:10573000003018001FF0000FC00000000000000043
:1057400007C0001FF00018300020080020080020CB
:1057500008003C08001C1000006000000000000071
:105760000000000007C0001FF000381800200800EB
:10577000200800200804101007FFF80FFFF00000B9
:10578000100000000000000000000007C0001FF033
:1057900000123000221800220800220800320800FF
:1057A0001E10000E2000000000000000200000205D
:1057B0000800200801FFF803FFF80620080420086D
:1057C0000420080720000300000000000000000083
:1057D000000E000E6E001FF30031B10020B100205A
:1057E000B1003191001F13002E1E00200E0030006A
:1057F00000000004000807FFF80FFFF80010080081
:105800002000002000002008003FF8001FF80000E2
:105810000800000000000000000000200800200830
:10582000002008063FF8063FF800000800000800C6
:105830000008000000000000000000000000000060
:1058400003000003002001002001002003063FFEAA
:10585000063FFC0000000000000000000000000403
:10586000000807FFF80FFFF8000188000300002F71
:10587000C00038F8002038002008000008000000B0
:1058800000000000000004000804000804000807ED
:10589000FFF80FFFF80000080000080000080000F3
:1058A00000000000002008003FF8003FF80010084A
:1058B000002000003FF8003FF80010080020000022
:1058C0003FF8003FF8000008000000002008003FFB
:1058D000F8003FF800100800100000200000200829
:1058E000003FF8001FF80000080000000000000062
:1058F00007C0000FF000183000300800200800201A
:1059000008003008001830000FF00007C000000049
:10591000000000002001003FFF003FFF00101100C9
:105920002009002008002008003038001FF0000F78
:10593000C00000000000000007C0001FF000381881
:10594000002008002008002009001011001FFF009F
:105950003FFF000001000000002008002008002098
:1059600008003FF8003FF800080800100800200871
:1059700000200000300000300000000000000000A7
:105980000000000C78001E180033080023080021D6
:10599000080021880021980030F0003860000000E5
:1059A00000000000200000200000200000FFF003A5
:1059B000FFF8002008002008002008000030000048
:1059C00000000000000000002000003FF0007FF811
:1059D000000018000008000008002010003FF80038
:1059E0007FF00000100000000000000020000030E8
:1059F00000003C00003F800023F0000078000070B1
:105A0000002380003C000030000020000020000047
:105A10003C00003FE00023F80000E0002700003ECB
:105A200000003FE00021F80001E0003E00002000FF
:105A3000000000002008002008003838003E680000
:105A400027800003C8002CF80038380020180020F8
:105A500008000000000000002000003003003C01AE
:105A6000003F830023EC000070002380003C000016
:105A700020000020000000000000000000000038AE
:105A8000080020380020F80023E8002F88003E0896
:105A9000003808002018000070000000000000001E
:105AA00000000000000000000000000008000014DA
:105AB000001FF7FC3000062000020000000000007C
:105AC00000000000000000000000000000000000D6
:105AD0000000FFFFFF0000000000000000000000C9
